{
  "_format": "hh-sol-artifact-1",
  "contractName": "BET",
  "sourceName": "contracts/betting.sol",
  "abi": [
    {
      "inputs": [
        {
          "internalType": "string",
          "name": "name",
          "type": "string"
        },
        {
          "internalType": "string",
          "name": "symbol",
          "type": "string"
        }
      ],
      "stateMutability": "nonpayable",
      "type": "constructor"
    },
    {
      "anonymous": false,
      "inputs": [
        {
          "indexed": true,
          "internalType": "address",
          "name": "owner",
          "type": "address"
        },
        {
          "indexed": true,
          "internalType": "address",
          "name": "spender",
          "type": "address"
        },
        {
          "indexed": false,
          "internalType": "uint256",
          "name": "value",
          "type": "uint256"
        }
      ],
      "name": "Approval",
      "type": "event"
    },
    {
      "anonymous": false,
      "inputs": [
        {
          "indexed": true,
          "internalType": "address",
          "name": "from",
          "type": "address"
        },
        {
          "indexed": true,
          "internalType": "address",
          "name": "to",
          "type": "address"
        },
        {
          "indexed": false,
          "internalType": "uint256",
          "name": "value",
          "type": "uint256"
        }
      ],
      "name": "Transfer",
      "type": "event"
    },
    {
      "anonymous": false,
      "inputs": [
        {
          "indexed": false,
          "internalType": "address",
          "name": "creator",
          "type": "address"
        },
        {
          "indexed": false,
          "internalType": "uint256",
          "name": "nftid",
          "type": "uint256"
        },
        {
          "indexed": false,
          "internalType": "uint256",
          "name": "price",
          "type": "uint256"
        },
        {
          "indexed": false,
          "internalType": "bool",
          "name": "isCreated",
          "type": "bool"
        }
      ],
      "name": "bettingCreate",
      "type": "event"
    },
    {
      "anonymous": false,
      "inputs": [
        {
          "indexed": false,
          "internalType": "address",
          "name": "creator",
          "type": "address"
        },
        {
          "indexed": false,
          "internalType": "uint256",
          "name": "nftid",
          "type": "uint256"
        },
        {
          "indexed": false,
          "internalType": "uint256",
          "name": "price",
          "type": "uint256"
        },
        {
          "indexed": false,
          "internalType": "bool",
          "name": "isStarted",
          "type": "bool"
        }
      ],
      "name": "bettingStart",
      "type": "event"
    },
    {
      "inputs": [
        {
          "internalType": "address",
          "name": "owner",
          "type": "address"
        },
        {
          "internalType": "address",
          "name": "spender",
          "type": "address"
        }
      ],
      "name": "allowance",
      "outputs": [
        {
          "internalType": "uint256",
          "name": "",
          "type": "uint256"
        }
      ],
      "stateMutability": "view",
      "type": "function"
    },
    {
      "inputs": [
        {
          "internalType": "address",
          "name": "spender",
          "type": "address"
        },
        {
          "internalType": "uint256",
          "name": "amount",
          "type": "uint256"
        }
      ],
      "name": "approve",
      "outputs": [
        {
          "internalType": "bool",
          "name": "",
          "type": "bool"
        }
      ],
      "stateMutability": "nonpayable",
      "type": "function"
    },
    {
      "inputs": [
        {
          "internalType": "address",
          "name": "account",
          "type": "address"
        }
      ],
      "name": "balanceOf",
      "outputs": [
        {
          "internalType": "uint256",
          "name": "",
          "type": "uint256"
        }
      ],
      "stateMutability": "view",
      "type": "function"
    },
    {
      "inputs": [],
      "name": "decimals",
      "outputs": [
        {
          "internalType": "uint8",
          "name": "",
          "type": "uint8"
        }
      ],
      "stateMutability": "view",
      "type": "function"
    },
    {
      "inputs": [
        {
          "internalType": "address",
          "name": "spender",
          "type": "address"
        },
        {
          "internalType": "uint256",
          "name": "subtractedValue",
          "type": "uint256"
        }
      ],
      "name": "decreaseAllowance",
      "outputs": [
        {
          "internalType": "bool",
          "name": "",
          "type": "bool"
        }
      ],
      "stateMutability": "nonpayable",
      "type": "function"
    },
    {
      "inputs": [
        {
          "internalType": "uint256",
          "name": "_nftId",
          "type": "uint256"
        },
        {
          "internalType": "uint256",
          "name": "_oraclePrice",
          "type": "uint256"
        }
      ],
      "name": "doBetting",
      "outputs": [],
      "stateMutability": "payable",
      "type": "function"
    },
    {
      "inputs": [
        {
          "internalType": "address",
          "name": "spender",
          "type": "address"
        },
        {
          "internalType": "uint256",
          "name": "addedValue",
          "type": "uint256"
        }
      ],
      "name": "increaseAllowance",
      "outputs": [
        {
          "internalType": "bool",
          "name": "",
          "type": "bool"
        }
      ],
      "stateMutability": "nonpayable",
      "type": "function"
    },
    {
      "inputs": [],
      "name": "name",
      "outputs": [
        {
          "internalType": "string",
          "name": "",
          "type": "string"
        }
      ],
      "stateMutability": "view",
      "type": "function"
    },
    {
      "inputs": [
        {
          "internalType": "uint256",
          "name": "_nftid",
          "type": "uint256"
        },
        {
          "internalType": "uint256",
          "name": "_BettingPrice",
          "type": "uint256"
        },
        {
          "internalType": "uint256",
          "name": "oracleprice",
          "type": "uint256"
        }
      ],
      "name": "startBetting",
      "outputs": [],
      "stateMutability": "payable",
      "type": "function"
    },
    {
      "inputs": [],
      "name": "symbol",
      "outputs": [
        {
          "internalType": "string",
          "name": "",
          "type": "string"
        }
      ],
      "stateMutability": "view",
      "type": "function"
    },
    {
      "inputs": [],
      "name": "totalSupply",
      "outputs": [
        {
          "internalType": "uint256",
          "name": "",
          "type": "uint256"
        }
      ],
      "stateMutability": "view",
      "type": "function"
    },
    {
      "inputs": [
        {
          "internalType": "address",
          "name": "to",
          "type": "address"
        },
        {
          "internalType": "uint256",
          "name": "amount",
          "type": "uint256"
        }
      ],
      "name": "transfer",
      "outputs": [
        {
          "internalType": "bool",
          "name": "",
          "type": "bool"
        }
      ],
      "stateMutability": "nonpayable",
      "type": "function"
    },
    {
      "inputs": [
        {
          "internalType": "address",
          "name": "from",
          "type": "address"
        },
        {
          "internalType": "address",
          "name": "to",
          "type": "address"
        },
        {
          "internalType": "uint256",
          "name": "amount",
          "type": "uint256"
        }
      ],
      "name": "transferFrom",
      "outputs": [
        {
          "internalType": "bool",
          "name": "",
          "type": "bool"
        }
      ],
      "stateMutability": "nonpayable",
      "type": "function"
    }
  ],
  "bytecode": "0x60806040523480156200001157600080fd5b50604051620023b9380380620023b98339818101604052810190620000379190620002c2565b818181600390805190602001906200005192919062000075565b5080600490805190602001906200006a92919062000075565b5050505050620003ac565b828054620000839062000376565b90600052602060002090601f016020900481019282620000a75760008555620000f3565b82601f10620000c257805160ff1916838001178555620000f3565b82800160010185558215620000f3579182015b82811115620000f2578251825591602001919060010190620000d5565b5b50905062000102919062000106565b5090565b5b808211156200012157600081600090555060010162000107565b5090565b6000604051905090565b600080fd5b600080fd5b600080fd5b600080fd5b6000601f19601f8301169050919050565b7f4e487b7100000000000000000000000000000000000000000000000000000000600052604160045260246000fd5b6200018e8262000143565b810181811067ffffffffffffffff82111715620001b057620001af62000154565b5b80604052505050565b6000620001c562000125565b9050620001d3828262000183565b919050565b600067ffffffffffffffff821115620001f657620001f562000154565b5b620002018262000143565b9050602081019050919050565b60005b838110156200022e57808201518184015260208101905062000211565b838111156200023e576000848401525b50505050565b60006200025b6200025584620001d8565b620001b9565b9050828152602081018484840111156200027a57620002796200013e565b5b620002878482856200020e565b509392505050565b600082601f830112620002a757620002a662000139565b5b8151620002b984826020860162000244565b91505092915050565b60008060408385031215620002dc57620002db6200012f565b5b600083015167ffffffffffffffff811115620002fd57620002fc62000134565b5b6200030b858286016200028f565b925050602083015167ffffffffffffffff8111156200032f576200032e62000134565b5b6200033d858286016200028f565b9150509250929050565b7f4e487b7100000000000000000000000000000000000000000000000000000000600052602260045260246000fd5b600060028204905060018216806200038f57607f821691505b60208210811415620003a657620003a562000347565b5b50919050565b611ffd80620003bc6000396000f3fe6080604052600436106100c25760003560e01c8063395093511161007f57806395d89b411161005957806395d89b4114610274578063a457c2d71461029f578063a9059cbb146102dc578063dd62ed3e14610319576100c2565b806339509351146101de57806370a082311461021b578063852c9a0b14610258576100c2565b806306fdde03146100c7578063095ea7b3146100f257806318160ddd1461012f5780631aa5094f1461015a57806323b872dd14610176578063313ce567146101b3575b600080fd5b3480156100d357600080fd5b506100dc610356565b6040516100e991906114c6565b60405180910390f35b3480156100fe57600080fd5b5061011960048036038101906101149190611581565b6103e8565b60405161012691906115dc565b60405180910390f35b34801561013b57600080fd5b5061014461040b565b6040516101519190611606565b60405180910390f35b610174600480360381019061016f9190611621565b610415565b005b34801561018257600080fd5b5061019d60048036038101906101989190611674565b6108ae565b6040516101aa91906115dc565b60405180910390f35b3480156101bf57600080fd5b506101c86108dd565b6040516101d591906116e3565b60405180910390f35b3480156101ea57600080fd5b5061020560048036038101906102009190611581565b6108e6565b60405161021291906115dc565b60405180910390f35b34801561022757600080fd5b50610242600480360381019061023d91906116fe565b61091d565b60405161024f9190611606565b60405180910390f35b610272600480360381019061026d919061172b565b610965565b005b34801561028057600080fd5b50610289610c5a565b60405161029691906114c6565b60405180910390f35b3480156102ab57600080fd5b506102c660048036038101906102c19190611581565b610cec565b6040516102d391906115dc565b60405180910390f35b3480156102e857600080fd5b5061030360048036038101906102fe9190611581565b610d63565b60405161031091906115dc565b60405180910390f35b34801561032557600080fd5b50610340600480360381019061033b919061176b565b610d86565b60405161034d9190611606565b60405180910390f35b606060038054610365906117da565b80601f0160208091040260200160405190810160405280929190818152602001828054610391906117da565b80156103de5780601f106103b3576101008083540402835291602001916103de565b820191906000526020600020905b8154815290600101906020018083116103c157829003601f168201915b5050505050905090565b6000806103f3610e0d565b9050610400818585610e15565b600191505092915050565b6000600254905090565b600015156006600085815260200190815260200160002060030160019054906101000a900460ff1615151461047f576040517f08c379a000000000000000000000000000000000000000000000000000000000815260040161047690611858565b60405180910390fd5b813410156104c2576040517f08c379a00000000000000000000000000000000000000000000000000000000081526004016104b9906118c4565b60405180910390fd5b600015156006600085815260200190815260200160002060030160009054906101000a900460ff16151514156106e957336006600085815260200190815260200160002060000160006101000a81548173ffffffffffffffffffffffffffffffffffffffff021916908373ffffffffffffffffffffffffffffffffffffffff160217905550816006600085815260200190815260200160002060020181905550806005600085815260200190815260200160002081905550346007600085815260200190815260200160002060003373ffffffffffffffffffffffffffffffffffffffff1673ffffffffffffffffffffffffffffffffffffffff1681526020019081526020016000208190555060016006600085815260200190815260200160002060030160006101000a81548160ff0219169083151502179055507fcea3f95af2c7bf4bdcb0e227bbca5f282c09912316894dbabd395d5cc974aeea6006600085815260200190815260200160002060000160009054906101000a900473ffffffffffffffffffffffffffffffffffffffff16846007600087815260200190815260200160002060003373ffffffffffffffffffffffffffffffffffffffff1673ffffffffffffffffffffffffffffffffffffffff168152602001908152602001600020546006600088815260200190815260200160002060030160009054906101000a900460ff166040516106dc94939291906118f3565b60405180910390a16108a9565b60016006600085815260200190815260200160002060030160016101000a81548160ff021916908315150217905550336006600085815260200190815260200160002060010160006101000a81548173ffffffffffffffffffffffffffffffffffffffff021916908373ffffffffffffffffffffffffffffffffffffffff160217905550346007600085815260200190815260200160002060003373ffffffffffffffffffffffffffffffffffffffff1673ffffffffffffffffffffffffffffffffffffffff168152602001908152602001600020819055507ffa98141584decc3245f1ffc11efa91ee383b92ef3a269974b3a348589603fe426006600085815260200190815260200160002060010160009054906101000a900473ffffffffffffffffffffffffffffffffffffffff16846007600087815260200190815260200160002060003373ffffffffffffffffffffffffffffffffffffffff1673ffffffffffffffffffffffffffffffffffffffff168152602001908152602001600020546006600088815260200190815260200160002060030160019054906101000a900460ff166040516108a094939291906118f3565b60405180910390a15b505050565b6000806108b9610e0d565b90506108c6858285610fe0565b6108d185858561106c565b60019150509392505050565b60006012905090565b6000806108f1610e0d565b90506109128185856109038589610d86565b61090d9190611967565b610e15565b600191505092915050565b60008060008373ffffffffffffffffffffffffffffffffffffffff1673ffffffffffffffffffffffffffffffffffffffff168152602001908152602001600020549050919050565b60008114156109a9576040517f08c379a00000000000000000000000000000000000000000000000000000000081526004016109a090611a09565b60405180910390fd5b600115156006600084815260200190815260200160002060030160019054906101000a900460ff16151514610a13576040517f08c379a0000000000000000000000000000000000000000000000000000000008152600401610a0a90611a75565b60405180910390fd5b60006006600084815260200190815260200160002060000160009054906101000a900473ffffffffffffffffffffffffffffffffffffffff16905060006006600085815260200190815260200160002060010160009054906101000a900473ffffffffffffffffffffffffffffffffffffffff16905060006007600086815260200190815260200160002060008473ffffffffffffffffffffffffffffffffffffffff1673ffffffffffffffffffffffffffffffffffffffff16815260200190815260200160002054905060006007600087815260200190815260200160002060008473ffffffffffffffffffffffffffffffffffffffff1673ffffffffffffffffffffffffffffffffffffffff1681526020019081526020016000205490506000856005600089815260200190815260200160002054600660008a815260200190815260200160002060020154610b6b9190611a95565b610b759190611b1e565b9050603c60648483610b879190611b1e565b610b919190611a95565b1115610bd85760006003846002846005610bab9190611a95565b610bb59190611b1e565b610bbf9190611a95565b610bc99190611b1e565b9050610bd68887836112ed565b505b603c60648383610be89190611b1e565b610bf29190611a95565b1115610c395760006003836002846005610c0c9190611a95565b610c169190611b1e565b610c209190611a95565b610c2a9190611b1e565b9050610c378886836112ed565b505b85600560008981526020019081526020016000208190555050505050505050565b606060048054610c69906117da565b80601f0160208091040260200160405190810160405280929190818152602001828054610c95906117da565b8015610ce25780601f10610cb757610100808354040283529160200191610ce2565b820191906000526020600020905b815481529060010190602001808311610cc557829003601f168201915b5050505050905090565b600080610cf7610e0d565b90506000610d058286610d86565b905083811015610d4a576040517f08c379a0000000000000000000000000000000000000000000000000000000008152600401610d4190611bc1565b60405180910390fd5b610d578286868403610e15565b60019250505092915050565b600080610d6e610e0d565b9050610d7b81858561106c565b600191505092915050565b6000600160008473ffffffffffffffffffffffffffffffffffffffff1673ffffffffffffffffffffffffffffffffffffffff16815260200190815260200160002060008373ffffffffffffffffffffffffffffffffffffffff1673ffffffffffffffffffffffffffffffffffffffff16815260200190815260200160002054905092915050565b600033905090565b600073ffffffffffffffffffffffffffffffffffffffff168373ffffffffffffffffffffffffffffffffffffffff161415610e85576040517f08c379a0000000000000000000000000000000000000000000000000000000008152600401610e7c90611c53565b60405180910390fd5b600073ffffffffffffffffffffffffffffffffffffffff168273ffffffffffffffffffffffffffffffffffffffff161415610ef5576040517f08c379a0000000000000000000000000000000000000000000000000000000008152600401610eec90611ce5565b60405180910390fd5b80600160008573ffffffffffffffffffffffffffffffffffffffff1673ffffffffffffffffffffffffffffffffffffffff16815260200190815260200160002060008473ffffffffffffffffffffffffffffffffffffffff1673ffffffffffffffffffffffffffffffffffffffff168152602001908152602001600020819055508173ffffffffffffffffffffffffffffffffffffffff168373ffffffffffffffffffffffffffffffffffffffff167f8c5be1e5ebec7d5bd14f71427d1e84f3dd0314c0f7b2291e5b200ac8c7c3b92583604051610fd39190611606565b60405180910390a3505050565b6000610fec8484610d86565b90507fffffffffffffffffffffffffffffffffffffffffffffffffffffffffffffffff81146110665781811015611058576040517f08c379a000000000000000000000000000000000000000000000000000000000815260040161104f90611d51565b60405180910390fd5b6110658484848403610e15565b5b50505050565b600073ffffffffffffffffffffffffffffffffffffffff168373ffffffffffffffffffffffffffffffffffffffff1614156110dc576040517f08c379a00000000000000000000000000000000000000000000000000000000081526004016110d390611de3565b60405180910390fd5b600073ffffffffffffffffffffffffffffffffffffffff168273ffffffffffffffffffffffffffffffffffffffff16141561114c576040517f08c379a000000000000000000000000000000000000000000000000000000000815260040161114390611e75565b60405180910390fd5b611157838383611423565b60008060008573ffffffffffffffffffffffffffffffffffffffff1673ffffffffffffffffffffffffffffffffffffffff168152602001908152602001600020549050818110156111dd576040517f08c379a00000000000000000000000000000000000000000000000000000000081526004016111d490611f07565b60405180910390fd5b8181036000808673ffffffffffffffffffffffffffffffffffffffff1673ffffffffffffffffffffffffffffffffffffffff16815260200190815260200160002081905550816000808573ffffffffffffffffffffffffffffffffffffffff1673ffffffffffffffffffffffffffffffffffffffff16815260200190815260200160002060008282546112709190611967565b925050819055508273ffffffffffffffffffffffffffffffffffffffff168473ffffffffffffffffffffffffffffffffffffffff167fddf252ad1be2c89b69c2b068fc378daa952ba7f163c4a11628f55a4df523b3ef846040516112d49190611606565b60405180910390a36112e7848484611428565b50505050565b806007600085815260200190815260200160002060008473ffffffffffffffffffffffffffffffffffffffff1673ffffffffffffffffffffffffffffffffffffffff168152602001908152602001600020541061137f576040517f08c379a000000000000000000000000000000000000000000000000000000000815260040161137690611f73565b60405180910390fd5b6113898282610d63565b50806007600085815260200190815260200160002060008473ffffffffffffffffffffffffffffffffffffffff1673ffffffffffffffffffffffffffffffffffffffff16815260200190815260200160002060008282546113ea9190611f93565b92505081905550806006600085815260200190815260200160002060020160008282546114179190611f93565b92505081905550505050565b505050565b505050565b600081519050919050565b600082825260208201905092915050565b60005b8381101561146757808201518184015260208101905061144c565b83811115611476576000848401525b50505050565b6000601f19601f8301169050919050565b60006114988261142d565b6114a28185611438565b93506114b2818560208601611449565b6114bb8161147c565b840191505092915050565b600060208201905081810360008301526114e0818461148d565b905092915050565b600080fd5b600073ffffffffffffffffffffffffffffffffffffffff82169050919050565b6000611518826114ed565b9050919050565b6115288161150d565b811461153357600080fd5b50565b6000813590506115458161151f565b92915050565b6000819050919050565b61155e8161154b565b811461156957600080fd5b50565b60008135905061157b81611555565b92915050565b60008060408385031215611598576115976114e8565b5b60006115a685828601611536565b92505060206115b78582860161156c565b9150509250929050565b60008115159050919050565b6115d6816115c1565b82525050565b60006020820190506115f160008301846115cd565b92915050565b6116008161154b565b82525050565b600060208201905061161b60008301846115f7565b92915050565b60008060006060848603121561163a576116396114e8565b5b60006116488682870161156c565b93505060206116598682870161156c565b925050604061166a8682870161156c565b9150509250925092565b60008060006060848603121561168d5761168c6114e8565b5b600061169b86828701611536565b93505060206116ac86828701611536565b92505060406116bd8682870161156c565b9150509250925092565b600060ff82169050919050565b6116dd816116c7565b82525050565b60006020820190506116f860008301846116d4565b92915050565b600060208284031215611714576117136114e8565b5b600061172284828501611536565b91505092915050565b60008060408385031215611742576117416114e8565b5b60006117508582860161156c565b92505060206117618582860161156c565b9150509250929050565b60008060408385031215611782576117816114e8565b5b600061179085828601611536565b92505060206117a185828601611536565b9150509250929050565b7f4e487b7100000000000000000000000000000000000000000000000000000000600052602260045260246000fd5b600060028204905060018216806117f257607f821691505b60208210811415611806576118056117ab565b5b50919050565b7f63616e7420737461727420746869732042657474696e67000000000000000000600082015250565b6000611842601783611438565b915061184d8261180c565b602082019050919050565b6000602082019050818103600083015261187181611835565b9050919050565b7f63616e742073746172742042657474696e670000000000000000000000000000600082015250565b60006118ae601283611438565b91506118b982611878565b602082019050919050565b600060208201905081810360008301526118dd816118a1565b9050919050565b6118ed8161150d565b82525050565b600060808201905061190860008301876118e4565b61191560208301866115f7565b61192260408301856115f7565b61192f60608301846115cd565b95945050505050565b7f4e487b7100000000000000000000000000000000000000000000000000000000600052601160045260246000fd5b60006119728261154b565b915061197d8361154b565b9250827fffffffffffffffffffffffffffffffffffffffffffffffffffffffffffffffff038211156119b2576119b1611938565b5b828201905092915050565b7f6f7261636c6520707269636365206d757374206e6f7420626520300000000000600082015250565b60006119f3601b83611438565b91506119fe826119bd565b602082019050919050565b60006020820190508181036000830152611a22816119e6565b9050919050565b7f63616e277420646f2042657474696e6700000000000000000000000000000000600082015250565b6000611a5f601083611438565b9150611a6a82611a29565b602082019050919050565b60006020820190508181036000830152611a8e81611a52565b9050919050565b6000611aa08261154b565b9150611aab8361154b565b9250817fffffffffffffffffffffffffffffffffffffffffffffffffffffffffffffffff0483118215151615611ae457611ae3611938565b5b828202905092915050565b7f4e487b7100000000000000000000000000000000000000000000000000000000600052601260045260246000fd5b6000611b298261154b565b9150611b348361154b565b925082611b4457611b43611aef565b5b828204905092915050565b7f45524332303a2064656372656173656420616c6c6f77616e63652062656c6f7760008201527f207a65726f000000000000000000000000000000000000000000000000000000602082015250565b6000611bab602583611438565b9150611bb682611b4f565b604082019050919050565b60006020820190508181036000830152611bda81611b9e565b9050919050565b7f45524332303a20617070726f76652066726f6d20746865207a65726f2061646460008201527f7265737300000000000000000000000000000000000000000000000000000000602082015250565b6000611c3d602483611438565b9150611c4882611be1565b604082019050919050565b60006020820190508181036000830152611c6c81611c30565b9050919050565b7f45524332303a20617070726f766520746f20746865207a65726f20616464726560008201527f7373000000000000000000000000000000000000000000000000000000000000602082015250565b6000611ccf602283611438565b9150611cda82611c73565b604082019050919050565b60006020820190508181036000830152611cfe81611cc2565b9050919050565b7f45524332303a20696e73756666696369656e7420616c6c6f77616e6365000000600082015250565b6000611d3b601d83611438565b9150611d4682611d05565b602082019050919050565b60006020820190508181036000830152611d6a81611d2e565b9050919050565b7f45524332303a207472616e736665722066726f6d20746865207a65726f20616460008201527f6472657373000000000000000000000000000000000000000000000000000000602082015250565b6000611dcd602583611438565b9150611dd882611d71565b604082019050919050565b60006020820190508181036000830152611dfc81611dc0565b9050919050565b7f45524332303a207472616e7366657220746f20746865207a65726f206164647260008201527f6573730000000000000000000000000000000000000000000000000000000000602082015250565b6000611e5f602383611438565b9150611e6a82611e03565b604082019050919050565b60006020820190508181036000830152611e8e81611e52565b9050919050565b7f45524332303a207472616e7366657220616d6f756e742065786365656473206260008201527f616c616e63650000000000000000000000000000000000000000000000000000602082015250565b6000611ef1602683611438565b9150611efc82611e95565b604082019050919050565b60006020820190508181036000830152611f2081611ee4565b9050919050565b7f616d6f756e74203e20636f6c6c656374696f6e20616d6f756e74000000000000600082015250565b6000611f5d601a83611438565b9150611f6882611f27565b602082019050919050565b60006020820190508181036000830152611f8c81611f50565b9050919050565b6000611f9e8261154b565b9150611fa98361154b565b925082821015611fbc57611fbb611938565b5b82820390509291505056fea26469706673582212200c1a8c7fac01c92d02d545da040e4ea041e7ccb2612953a3e6a46e822a33941e64736f6c63430008090033",
  "linkReferences": {},
  "deployedLinkReferences": {}
}